:100000000C9460000C94A6030C94CD030C9488000F
:100010000C9488000C9488000C9488000C9449037C
:100020000C9488000C9488000C9488000C94880030
:100030000C9488000C9488000C9488000C94880020
:100040000C94F4030C9488000C946D010C949F01A3
:100050000C9488000C9488000C9488000C94880000
:100060000C942E060C948800020000000800020187
:10007000000003040700000000000000000102046B
:10008000081020408001020408102001020408101A
:100090002004040404040404040202020202020311
:1000A000030303030300000000250028002B0000C9
:1000B000000000240027002A0000CF014C025B074B
:1000C00011241FBECFEFD8E0DEBFCDBF11E0A0E00E
:1000D000B1E0E2E4FFE002C005900D92A633B10763
:1000E000D9F722E0A6E3B1E001C01D92A83AB20719
:1000F000E1F710E0C0ECD0E004C02297FE010E94BE
:100100009B07CA3BD107C9F70E945C020C949F076A
:100110000C940000FC01818D228D90E0805C9F4F4B
:10012000821B91098F7399270895FC01918D828D0F
:10013000981731F0828DE80FF11D858D90E00895BC
:100140008FEF9FEF0895FC01918D828D981761F0DC
:10015000828DDF01A80FB11D5D968C91928D9F5FFE
:100160009F73928F90E008958FEF9FEF089585EC35
:1001700091E0892B49F080E090E0892B29F00E94E2
:10018000C50181110C9400000895FC01848DDF01EC
:10019000A80FB11DA35ABF4F2C91848D90E00196FA
:1001A0008F739927848FA689B7892C93A089B189E9
:1001B0008C9180648C93938D848D981306C00288F3
:1001C000F389E02D80818F7D80830895CF93DF9325
:1001D000EC01888D8823C9F0EA89FB89808185FD3F
:1001E00005C0A889B9898C9186FD0FC00FB607FCA0
:1001F000F5CF808185FFF2CFA889B9898C9185FFE1
:10020000EDCFCE010E94C500E7CFDF91CF910895D9
:10021000CF92DF92FF920F931F93CF93DF931F92A2
:10022000CDB7DEB76C0181E0D60158968C93589714
:100230005B969C915B975C968C915C97981307C03A
:100240005096ED91FC915197808185FD2EC0F6016D
:10025000038D10E00F5F1F4F0F731127F02EF60173
:10026000848DF81211C00FB607FCF9CFD601509655
:10027000ED91FC915197808185FFF1CFC601698393
:100280000E94C5006981EBCF838DE80FF11DE35A11
:10029000FF4F6083D6015B960C935B975296ED916E
:1002A000FC915397808180620CC0D6015696ED91E7
:1002B000FC91579760835096ED91FC915197808106
:1002C0008064808381E090E00F90DF91CF911F9157
:1002D0000F91FF90DF90CF9008951F920F920FB66D
:1002E0000F9211242F938F939F93EF93FF93E0919D
:1002F0004601F09147018081E0914C01F0914D0160
:1003000082FD12C0908180914F018F5F8F73209189
:100310005001821751F0E0914F01F0E0EA5CFE4F8E
:10032000958F80934F0101C08081FF91EF919F9144
:100330008F912F910F900FBE0F901F9018951F92C5
:100340000F920FB60F9211242F933F934F935F9309
:100350006F937F938F939F93AF93BF93EF93FF938D
:1003600086E391E00E94C500FF91EF91BF91AF91AC
:100370009F918F917F916F915F914F913F912F91BD
:100380000F900FBE0F901F90189586E391E00E948A
:100390008A0021E0892B09F420E0822F0895109231
:1003A00039011092380188EE93E0A0E0B0E080932C
:1003B0003A0190933B01A0933C01B0933D0183E14E
:1003C00091E0909337018093360185EC90E0909313
:1003D00043018093420184EC90E090934501809327
:1003E000440180EC90E0909347018093460181ECBA
:1003F00090E0909349018093480182EC90E09093C3
:100400004B0180934A0186EC90E090934D018093DC
:100410004C0110924F011092500110925101109214
:1004200052010895AF92BF92CF92DF92EF92FF9266
:100430000F931F93CF93DF936C017B01C0E0D0E05B
:1004400000E010E0F601EC0FFD1F4AE050E0628191
:10045000C7010E940D035C016EE2C7010E94AA025F
:100460008A0D9B1D080F191F2196C330D10551F726
:100470004AE050E0F6016581C7010E940D03800F3C
:10048000911FDF91CF911F910F91FF90EF90DF901F
:10049000CF90BF90AF90089583E291E09093D40104
:1004A0008093D3011092D5011092D6011092D701FA
:1004B0001092D801089508950E949B040E945B0247
:1004C0000E945F07C7EBD0E00E9463072097E1F32B
:1004D0000E94B700F9CF0895CF92DF92EF92FF927A
:1004E0000F931F93CF93DF937C016A01EB0100E030
:1004F00010E00C151D0571F06991D701ED91FC918B
:100500000190F081E02DC7010995892B19F00F5F4B
:100510001F4FEFCFC801DF91CF911F910F91FF9037
:10052000EF90DF90CF9008956115710581F0DB01A8
:100530000D900020E9F7AD0141505109461B570BC2
:10054000DC01ED91FC910280F381E02D099480E0C3
:1005500090E00895DC01ED91FC910190F081E02D97
:1005600009948F929F92AF92BF92DF92EF92FF9287
:100570000F931F93CF93DF93CDB7DEB7A1970FB63D
:10058000F894DEBF0FBECDBF7C01F42FD52ECB017A
:1005900019A2223008F42AE08E010F5D1F4F822E2F
:1005A000912CA12CB12C6F2F7D2DA50194010E94BF
:1005B0007707F22FD32ECA01015011096A3014F4C3
:1005C000E0E301C0E7E3E60FD801EC93232B242BF3
:1005D000252B49F7B801C7010E949402A1960FB6D6
:1005E000F894DEBF0FBECDBFDF91CF911F910F9169
:1005F000FF90EF90DF90BF90AF909F908F90089505
:100600002115310541F4DC01ED91FC910190F0815F
:10061000E02D642F09940C94B1029A01462F50E00A
:1006200060E070E00C940003813039F018F0823003
:1006300051F0089510926E00089580916F008D7FA3
:1006400080936F000895809170008D7F809370007B
:1006500081E08093B0008091B100887F84608093B6
:10066000B1001092B3000895CF93C82F80910A0172
:100670008C1307C0E8E6F0E084919FEF90930A01A5
:1006800001C08FEF0E94140360E08C2FCF910C9477
:1006900038051F920F920FB60F9211242F933F939C
:1006A0004F935F936F937F938F939F93AF93BF937A
:1006B000EF93FF938091DC019091DD01A091DE0129
:1006C000B091DF01892B8A2B8B2B51F19091D901AD
:1006D000E091DA01F091DB018081892780838091AC
:1006E000DC019091DD01A091DE01B091DF011816CF
:1006F00019061A061B06C4F48091DC019091DD01F5
:10070000A091DE01B091DF010197A109B1098093A9
:10071000DC019093DD01A093DE01B093DF0104C002
:1007200080910A010E943403FF91EF91BF91AF9134
:100730009F918F917F916F915F914F913F912F91F9
:100740000F900FBE0F901F90189508951F920F9253
:100750000FB60F9211242F933F934F935F936F9394
:100760007F938F939F93AF93BF93EF93FF93E0910A
:100770000B01F0910C010995FF91EF91BF91AF91A1
:100780009F918F917F916F915F914F913F912F91A9
:100790000F900FBE0F901F9018951F920F920FB6DB
:1007A0000F9211242F933F934F935F936F937F93F7
:1007B0008F939F93AF93BF93EF93FF93E0910D01BE
:1007C000F0910E010995FF91EF91BF91AF919F912B
:1007D0008F917F916F915F914F913F912F910F90EA
:1007E0000FBE0F901F9018951F920F920FB60F9289
:1007F00011242F933F938F939F93AF93BF93809137
:10080000E1019091E201A091E301B091E401309106
:10081000E00123E0230F2D3720F40196A11DB11D27
:1008200005C026E8230F0296A11DB11D2093E0010B
:100830008093E1019093E201A093E301B093E4017E
:100840008091E5019091E601A091E701B091E80166
:100850000196A11DB11D8093E5019093E601A0933F
:10086000E701B093E801BF91AF919F918F913F91C4
:100870002F910F900FBE0F901F9018953FB7F894CF
:100880008091E5019091E601A091E701B091E80126
:1008900026B5A89B05C02F3F19F00196A11DB11DDB
:1008A0003FBF6627782F892F9A2F620F711D811DF8
:1008B000911D42E0660F771F881F991F4A95D1F757
:1008C00008958F929F92AF92BF92CF92DF92EF9254
:1008D000FF926B017C010E943E044B015C01C1143C
:1008E000D104E104F104F1F00E946B020E943E0485
:1008F000681979098A099B09683E73408105910549
:1009000070F321E0C21AD108E108F10888EE880EE0
:1009100083E0981EA11CB11CC114D104E104F104B0
:1009200029F7DDCFFF90EF90DF90CF90BF90AF9091
:100930009F908F900895789484B5826084BD84B52B
:10094000816084BD85B5826085BD85B5816085BDCA
:10095000EEE6F0E0808181608083E1E8F0E01082E3
:10096000808182608083808181608083E0E8F0E024
:10097000808181608083E1EBF0E08081846080830E
:10098000E0EBF0E0808181608083EAE7F0E0808145
:1009900084608083808182608083808181608083A5
:1009A0008081806880831092C1000895833081F037
:1009B00028F4813099F08230A1F008958730A9F0B1
:1009C0008830B9F08430D1F4809180008F7D03C0ED
:1009D000809180008F7780938000089584B58F7711
:1009E00002C084B58F7D84BD08958091B0008F775B
:1009F00003C08091B0008F7D8093B0000895CF93A5
:100A0000DF9390E0FC01E358FF4F2491FC01EF5687
:100A1000FF4F8491882349F190E0880F991FFC01D2
:100A2000E155FF4FA591B4918B559F4FFC01C591A6
:100A3000D4919FB7611108C0F8948C9120958223BE
:100A40008C93888182230AC0623051F4F8948C918F
:100A5000322F309583238C938881822B888304C026
:100A6000F8948C91822B8C939FBFDF91CF91089546
:100A70000F931F93CF93DF931F92CDB7DEB7282F2D
:100A800030E0F901E759FF4F8491F901E358FF4F36
:100A90001491F901EF56FF4F04910023C9F0882308
:100AA00021F069830E94D6046981E02FF0E0EE0F07
:100AB000FF1FEB55FF4FA591B4919FB7F8948C9110
:100AC000611103C01095812301C0812B8C939FBFBE
:100AD0000F90DF91CF911F910F9108958091860221
:100AE00090E020918702821B91090895209187024E
:100AF00080918602281750F4E22FF0E0E857FD4F6E
:100B0000808190E02F5F2093870208958FEF9FEF01
:100B10000895E091870280918602E81730F4F0E0B2
:100B2000E857FD4F808190E008958FEF9FEF089583
:100B30000895FC011382128248EE53E060E070E0F9
:100B4000448355836683778389E291E09183808330
:100B50000895613298F420915602243089F460930C
:100B60000B02FC018DE092E0DC012A2F281B2617E6
:100B700018F421912D93F9CF80E0089581E0089534
:100B800082E00895CF93DF931F92CDB7DEB76983DC
:100B9000209163022223D1F020916402203240F0A0
:100BA00021E030E0FC013383228380E090E015C037
:100BB00080916502E82FF0E0EA59FD4F998190831A
:100BC0008F5F809365028093640205C061E0CE016F
:100BD00001960E94A90581E090E00F90DF91CF91EE
:100BE0000895CF92DF92EF92FF920F931F93CF93CE
:100BF000DF937C01CB018A0120916302222389F0DB
:100C0000EB016B01C40ED51ECC15DD0569F06991B1
:100C1000D701ED91FC910190F081E02DC70109957C
:100C2000F3CF642F0E94A905C801DF91CF911F91D6
:100C30000F91FF90EF90DF90CF90089585ED809316
:100C4000BC008091BC0084FDFCCF10925602089538
:100C500085EC8093BC001092560208951F920F926B
:100C60000FB60F9211242F933F934F935F936F937F
:100C70007F938F939F93AF93BF93EF93FF93809155
:100C8000B900887F803609F49EC078F5883209F46F
:100C90005DC090F4803109F456C038F4882309F41B
:100CA000F5C0883009F44FC0F5C0883109F44EC052
:100CB000803209F45FC0EEC0803409F46AC058F491
:100CC000803309F457C0883309F0E4C08093E90108
:100CD0000E942806DFC0803509F44FC0883509F42A
:100CE0005DC0883409F0D6C0D3C0883909F4C4C0C7
:100CF000A8F4883709F467C038F4883609F463C06B
:100D0000803709F460C0C6C0883809F4B5C080399E
:100D100009F45FC0803809F0BDC05BC0803B09F4B6
:100D200083C038F4803A09F466C0883A09F47CC07C
:100D3000B1C0803C09F4A4C0883C09F4A1C0883B40
:100D400009F487C0A7C08091550210C090912E026F
:100D500080912D02981770F5E0912E0281E08E0FA0
:100D600080932E02F0E0E15DFD4F80818093BB0017
:100D700085EC83C08093E9018BC0E0912E0281E075
:100D80008E0F80932E028091BB00F0E0E15DFD4F5D
:100D9000808390912E0280912D026BC0E0912E02F3
:100DA00081E08E0F80932E028091BB00F0E0E15D28
:100DB000FD4F80838091540281116AC081E080934D
:100DC000530284EA5EC083E0809356021092EA01E7
:100DD000CFCF8091EA01803208F04EC0E091EA0165
:100DE00081E08E0F8093EA018091BB00F0E0E55135
:100DF000FE4F8083BDCF0E9428068091EA01803299
:100E000030F4E091EA01F0E0E551FE4F108260918C
:100E1000EA0170E0E0914F02F09150028BEE91E018
:100E200009951092EA0136C084E080935602109230
:100E30000C0210920B02E0915102F09152020995BE
:100E400080910B02811105C081E080930B0210920A
:100E50000D02E0910C0281E08E0F80930C02F0E015
:100E6000E35FFD4F80818093BB0090910C028091E5
:100E70000B02981708F47CCF85E88093BC000AC069
:100E800085EC8093BC001092560204C01092E901D8
:100E90000E941E06FF91EF91BF91AF919F918F919C
:100EA0007F916F915F914F913F912F910F900FBE66
:100EB0000F901F90189587E592E00C94990561E0DA
:100EC0008DE00C94FF0461E08DE00E94380568EE2F
:100ED00073E080E090E00E94610460E08DE00E9499
:100EE000380568EE73E080E090E00C946104A1E2C4
:100EF0001A2EAA1BBB1BFD010DC0AA1FBB1FEE1F94
:100F0000FF1FA217B307E407F50720F0A21BB30BDE
:100F1000E40BF50B661F771F881F991F1A9469F75A
:100F200060957095809590959B01AC01BD01CF01B6
:100F30000895EE0FFF1F0590F491E02D0994F894A9
:020F4000FFCFE1
:100F42000000A802800001000000FFA503A5030025
:100F520000000008016C028A00A3009500E6000070
:100F6200000000120200000000C205F1056E0576C5
:060F720005890598050049
:00000001FF
