:100000000C945F000C94A5030C94CC030C94870013
:100010000C9487000C9487000C9487000C94480380
:100020000C9487000C9487000C9487000C94870034
:100030000C9487000C9487000C9487000C94870024
:100040000C94F3030C9487000C946C010C949E01A7
:100050000C9487000C9487000C9487000C94870004
:100060000C9487000C948700020000000800020135
:10007000000003040700000000000000000102046B
:10008000081020408001020408102001020408101A
:100090002004040404040404040202020202020311
:1000A000030303030300000000250028002B0000C9
:1000B000000000240027002A0000CE014B0211247A
:1000C0001FBECFEFD8E0DEBFCDBF11E0A0E0B1E0B2
:1000D000EEE5FBE002C005900D92A632B107D9F71C
:1000E00021E0A6E2B1E001C01D92A93DB207E1F70F
:1000F00010E0CEEBD0E004C02297FE010E94A905DB
:10010000CA3BD107C9F70E945B020C94AD050C9461
:100110000000FC01818D228D90E0805C9F4F821B4E
:1001200091098F7399270895FC01918D828D9817FD
:1001300031F0828DE80FF11D858D90E008958FEFED
:100140009FEF0895FC01918D828D981761F0828D4B
:10015000DF01A80FB11D5D968C91928D9F5F9F73FB
:10016000928F90E008958FEF9FEF089584EC91E0D7
:10017000892B49F080E090E0892B29F00E94C4018E
:1001800081110C9400000895FC01848DDF01A80FFB
:10019000B11DA35ABF4F2C91848D90E001968F73AF
:1001A0009927848FA689B7892C93A089B1898C91CE
:1001B00080648C93938D848D981306C00288F38994
:1001C000E02D80818F7D80830895CF93DF93EC01B4
:1001D000888D8823C9F0EA89FB89808185FD05C067
:1001E000A889B9898C9186FD0FC00FB607FCF5CFA1
:1001F000808185FFF2CFA889B9898C9185FFEDCFE9
:10020000CE010E94C400E7CFDF91CF910895CF9235
:10021000DF92FF920F931F93CF93DF931F92CDB77F
:10022000DEB76C0181E0D60158968C9358975B96A7
:100230009C915B975C968C915C97981307C0509645
:10024000ED91FC915197808185FD2EC0F601038DC3
:1002500010E00F5F1F4F0F731127F02EF601848DF2
:10026000F81211C00FB607FCF9CFD6015096ED91E8
:10027000FC915197808185FFF1CFC60169830E946F
:10028000C4006981EBCF838DE80FF11DE35AFF4F66
:100290006083D6015B960C935B975296ED91FC912F
:1002A0005397808180620CC0D6015696ED91FC91E7
:1002B000579760835096ED91FC91519780818064AF
:1002C000808381E090E00F90DF91CF911F910F919B
:1002D000FF90DF90CF9008951F920F920FB60F926C
:1002E00011242F938F939F93EF93FF93E091360107
:1002F000F09137018081E0913C01F0913D0182FD58
:1003000012C0908180913F018F5F8F7320914001D7
:10031000821751F0E0913F01F0E0EA5DFE4F958FCA
:1003200080933F0101C08081FF91EF919F918F9158
:100330002F910F900FBE0F901F9018951F920F9244
:100340000FB60F9211242F933F934F935F936F93A8
:100350007F938F939F93AF93BF93EF93FF9386E227
:1003600091E00E94C400FF91EF91BF91AF919F91E6
:100370008F917F916F915F914F913F912F910F904E
:100380000FBE0F901F90189586E291E00E948900A1
:1003900021E0892B09F420E0822F08951092290191
:1003A0001092280188EE93E0A0E0B0E080932A014B
:1003B00090932B01A0932C01B0932D0183E191E048
:1003C000909327018093260185EC90E09093330170
:1003D0008093320184EC90E0909335018093340156
:1003E00080EC90E0909337018093360181EC90E0AF
:1003F000909339018093380182EC90E090933B0117
:1004000080933A0186EC90E090933D0180933C010B
:1004100010923F011092400110924101109242014E
:100420000895AF92BF92CF92DF92EF92FF920F9317
:100430001F93CF93DF936C017B01C0E0D0E000E01D
:1004400010E0F601EC0FFD1F4AE050E06281C701A9
:100450000E940C035C016EE2C7010E94A9028A0D92
:100460009B1D080F191F2196C330D10551F74AE093
:1004700050E0F6016581C7010E940C03800F911FB7
:10048000DF91CF911F910F91FF90EF90DF90CF9070
:10049000BF90AF90089583E291E09093C401809360
:1004A000C3011092C5011092C6011092C7011092AB
:1004B000C801089508950E949A040E945A020E9459
:1004C0006D05C6EBD0E00E9471052097E1F30E9414
:1004D000B600F9CF0895CF92DF92EF92FF920F937B
:1004E0001F93CF93DF937C016A01EB0100E010E0E2
:1004F0000C151D0571F06991D701ED91FC910190EA
:10050000F081E02DC7010995892B19F00F5F1F4F6E
:10051000EFCFC801DF91CF911F910F91FF90EF9026
:10052000DF90CF9008956115710581F0DB010D908A
:100530000020E9F7AD0141505109461B570BDC0182
:10054000ED91FC910280F381E02D099480E090E030
:100550000895DC01ED91FC910190F081E02D09946A
:100560008F929F92AF92BF92DF92EF92FF920F9382
:100570001F93CF93DF93CDB7DEB7A1970FB6F89453
:10058000DEBF0FBECDBF7C01F42FD52ECB0119A24B
:10059000223008F42AE08E010F5D1F4F822E912C2D
:1005A000A12CB12C6F2F7D2DA50194010E948505F2
:1005B000F22FD32ECA01015011096A3014F4E0E37E
:1005C00001C0E7E3E60FD801EC93232B242B252B66
:1005D00049F7B801C7010E949302A1960FB6F8949B
:1005E000DEBF0FBECDBFDF91CF911F910F91FF9066
:1005F000EF90DF90BF90AF909F908F90089521155E
:10060000310541F4DC01ED91FC910190F081E02D88
:10061000642F09940C94B0029A01462F50E060E0D8
:1006200070E00C94FF02813039F018F0823051F004
:10063000089510926E00089580916F008D7F8093D1
:100640006F000895809170008D7F8093700081E02D
:100650008093B0008091B100887F84608093B10066
:100660001092B3000895CF93C82F80910A018C1384
:1006700007C0E8E6F0E084919FEF90930A0101C083
:100680008FEF0E94130360E08C2FCF910C943705FD
:100690001F920F920FB60F9211242F933F934F93F7
:1006A0005F936F937F938F939F93AF93BF93EF93DA
:1006B000FF938091CC019091CD01A091CE01B0919A
:1006C000CF01892B8A2B8B2B51F19091C901E0919D
:1006D000CA01F091CB018081892780838091CC0170
:1006E0009091CD01A091CE01B091CF0118161906BD
:1006F0001A061B06C4F48091CC019091CD01A09103
:10070000CE01B091CF010197A109B1098093CC012D
:100710009093CD01A093CE01B093CF0104C08091FE
:100720000A010E943303FF91EF91BF91AF919F9116
:100730008F917F916F915F914F913F912F910F908A
:100740000FBE0F901F90189508951F920F920FB62D
:100750000F9211242F933F934F935F936F937F9347
:100760008F939F93AF93BF93EF93FF93E0910B0110
:10077000F0910C010995FF91EF91BF91AF919F917D
:100780008F917F916F915F914F913F912F910F903A
:100790000FBE0F901F9018951F920F920FB60F92D9
:1007A00011242F933F934F935F936F937F938F9376
:1007B0009F93AF93BF93EF93FF93E0910D01F0915F
:1007C0000E010995FF91EF91BF91AF919F918F918C
:1007D0007F916F915F914F913F912F910F900FBE3D
:1007E0000F901F9018951F920F920FB60F92112421
:1007F0002F933F938F939F93AF93BF938091D1019A
:100800009091D201A091D301B091D4013091D00147
:1008100023E0230F2D3720F40196A11DB11D05C043
:1008200026E8230F0296A11DB11D2093D0018093CD
:10083000D1019093D201A093D301B093D4018091C0
:10084000D5019091D601A091D701B091D801019620
:10085000A11DB11D8093D5019093D601A093D7011E
:10086000B093D801BF91AF919F918F913F912F91FC
:100870000F900FBE0F901F9018953FB7F89480917E
:10088000D5019091D601A091D701B091D80126B59C
:10089000A89B05C02F3F19F00196A11DB11D3FBFB8
:1008A0006627782F892F9A2F620F711D811D911D48
:1008B00042E0660F771F881F991F4A95D1F7089568
:1008C0008F929F92AF92BF92CF92DF92EF92FF9260
:1008D0006B017C010E943D044B015C01C114D104F9
:1008E000E104F104F1F00E946A020E943D046819DB
:1008F00079098A099B09683E73408105910570F367
:1009000021E0C21AD108E108F10888EE880E83E0E0
:10091000981EA11CB11CC114D104E104F10429F7F3
:10092000DDCFFF90EF90DF90CF90BF90AF909F9082
:100930008F900895789484B5826084BD84B5816079
:1009400084BD85B5826085BD85B5816085BDEEE6D7
:10095000F0E0808181608083E1E8F0E010828081B6
:1009600082608083808181608083E0E8F0E0808124
:1009700081608083E1EBF0E0808184608083E0EB44
:10098000F0E0808181608083EAE7F0E0808184602C
:100990008083808182608083808181608083808188
:1009A000806880831092C1000895833081F028F41C
:1009B000813099F08230A1F008958730A9F0883015
:1009C000B9F08430D1F4809180008F7D03C0809194
:1009D00080008F7780938000089584B58F7702C060
:1009E00084B58F7D84BD08958091B0008F7703C05A
:1009F0008091B0008F7D8093B0000895CF93DF93F6
:100A000090E0FC01E358FF4F2491FC01EF56FF4FAB
:100A10008491882349F190E0880F991FFC01E155EA
:100A2000FF4FA591B4918B559F4FFC01C591D49177
:100A30009FB7611108C0F8948C91209582238C9304
:100A4000888182230AC0623051F4F8948C91322F4D
:100A5000309583238C938881822B888304C0F894FB
:100A60008C91822B8C939FBFDF91CF9108950F9330
:100A70001F93CF93DF931F92CDB7DEB7282F30E0BF
:100A8000F901E759FF4F8491F901E358FF4F1491A1
:100A9000F901EF56FF4F04910023C9F0882321F09C
:100AA00069830E94D5046981E02FF0E0EE0FFF1FFB
:100AB000EB55FF4FA591B4919FB7F8948C916111BC
:100AC00003C01095812301C0812B8C939FBF0F9091
:100AD000DF91CF911F910F91089561E08DE00C940B
:100AE000FE0461E08DE00E94370568EE73E080E06F
:100AF00090E00E94600460E08DE00E94370568EE9F
:100B000073E080E090E00C946004A1E21A2EAA1B2E
:100B1000BB1BFD010DC0AA1FBB1FEE1FFF1FA217AD
:100B2000B307E407F50720F0A21BB30BE40BF50BAA
:100B3000661F771F881F991F1A9469F76095709533
:100B4000809590959B01AC01BD01CF010895EE0FFA
:0E0B5000FF1F0590F491E02D0994F894FFCF5B
:100B5E000000D901800001000000FFA403A40300DF
:100B6E0000000007016B028900A2009400E500005E
:060B7E000000001102005E
:00000001FF
